:020000040000FA
:0400000058EF00F0C5
:100008005B82FACF01F0FBCF02F0D9CF03F0DACF51
:1000180004F0F2AC12EF00F014EF00F04EEF00F035
:100028009DA819EF00F01BEF00F031EF00F09EA83B
:1000380020EF00F022EF00F031EF00F002D82FEFB0
:1000480000F00500FA6E0001F951FD6EFA51FE6EDE
:10005800FF6AFA5012004EEF00F09DAA36EF00F04A
:1000680038EF00F04EEF00F09EAA3DEF00F03FEFB2
:1000780000F04EEF00F002D84CEF00F00500FA6EE9
:100088000001F751FD6EF851FE6EFF6AFA5012003A
:100098004EEF00F004C0DAFF03C0D9FF02C0FBFF37
:0C00A80001C0FAFF5B9211007BEF23F017
:10100000009049684958497A3A583D8449A83F1A9E
:101010004A124A0A4A024AFA49F249EA49784966B2
:101020004225342E3266B0430D0A00494E46004E2A
:10103000414E00696E66006E616E006C66002D00A8
:0110400000AF
:10104200000E00017B6F000E7A6F42C08CF043C02D
:101052008DF044C08EF045C08FF08FBF35EF08F0A1
:1010620033EF08F04BEF08F0000E7B6F010E7A6F42
:101072008CC005F08DC006F08EC007F08FC008F05E
:1010820010EC23F005C08CF006C08DF007C08EF086
:1010920008C08FF0000E0001936F000E926FF0C037
:1010A2007FF0F1C080F07A517B11D8A45BEF08F099
:1010B2005DEF08F064EF08F0F4A562EF08F064EF6A
:1010C20008F07EEF08F07A517B11D8A46BEF08F09C
:1010D2006DEF08F073EF08F0000E656F2B0E646F72
:1010E20077EF08F0000E656F2D0E646F64C010F18B
:1010F200924B932B7F07D8A080078CC005F08DC040
:1011020006F08EC007F08FC008F08BEC1BF00504D0
:101112000610D8A48FEF08F091EF08F0E8EF08F07E
:10112200BF0E476EFF0E486E4650496E4A6A4750E0
:10113200492648504A224A500AE11A0E495CD8A070
:10114200A5EF08F0A8EF08F0010EA9EF08F0000ED5
:101152000001666F676B66516711D8B4B3EF08F090
:10116200B5EF08F0C3EF08F0100E9225056E010EE0
:101172009321066E2B0E076E100E086EC8EC21F03E
:10118200CFEF08F0100E9225056E010E9321066E28
:10119200330E076E100E086EC8EC21F00001FD0E32
:1011A2007F27FF0E802340C017F041C018F0100EB9
:1011B200196E010E1A6E7FC01BF080C01CF078EC15
:1011C2001CF017C040F018C041F01FEF0EF08CC0A9
:1011D20005F08DC006F08EC007F08FC008F08BECD2
:1011E2001BF005500610D8A4F9EF08F0FBEF08F049
:1011F20052EF09F0BF0E476EFF0E486E4650496E21
:101202004A6A4750492648504A224A500AE11A0E71
:10121200495CD8A00FEF09F012EF09F0010E13EFAD
:1012220009F0000E0001686F696B68516911D8B44A
:101232001DEF09F01FEF09F02DEF09F0100E9225B6
:10124200056E010E9321066E2F0E076E100E086EAC
:10125200C8EC21F039EF09F0100E9225056E010E4F
:101262009321066E370E076E100E086EC8EC21F041
:101272000001FD0E7F27FF0E802340C017F041C002
:1012820018F0100E196E010E1A6E7FC01BF080C08E
:101292001CF078EC1CF017C040F018C041F01FEFB2
:1012A2000EF0000E0001946F000E956F800E966F87
:1012B2003F0E976F000E916F000E906F8CC005F07D
:1012C2008DC006F08EC007F08FC008F0000E096EC8
:1012D200000E0A6E000E0B6E000E0C6E57EC1EF026
:1012E200D8B076EF09F078EF09F0FBEF09F097EF4D
:1012F20009F094C005F095C006F096C007F097C0BB
:1013020008F0000E096E000E0A6E200E0B6E410EE2
:101312000C6E56EC13F005C094F006C095F007C0B1
:1013220096F008C097F00001904B912B8CC01EF0F4
:101332008DC01FF08EC020F08FC021F0000E096E0C
:10134200000E0A6E200E0B6E410E0C6E94C005F05C
:1013520095C006F096C007F097C008F056EC13F05F
:1013620005C022F006C023F007C024F008C025F013
:1013720009EC1BF0D8B0C0EF09F0C2EF09F07AEF28
:1013820009F0E2EF09F094C013F095C014F096C092
:1013920015F097C016F0000E176E000E186E200E94
:1013A200196E410E1A6E6BEC15F013C094F014C056
:1013B20095F015C096F016C097F000019007D8A0DE
:1013C20091078CC01EF08DC01FF08EC020F08FC020
:1013D20021F094C022F095C023F096C024F097C06B
:1013E20025F009EC1BF0D8A0F9EF09F0FBEF09F0AA
:1013F200C4EF09F046C00BF00C6A98EC21F00B50D8
:101402000001816F81C07EF0670E8119D8A40CEFB4
:101412000AF00EEF0AF034EF0AF0F251F311D8A4F9
:1014220015EF0AF017EF0AF01BEF0AF0000EF36F48
:10143200010EF26FF3BF28EF0AF0F35106E1F20555
:10144200D8B026EF0AF028EF0AF02EEF0AF0000ECD
:101452007D6F060E7C6F3DEF0AF0F2C07CF0F3C0A8
:101462007DF03DEF0AF0F3BF39EF0AF03BEF0AF0EF
:1014720028EF0AF02EEF0AF0670E8119D8A444EF84
:101482000AF046EF0AF075EF0AF091AF54EF0AF056
:10149200FC0E905DFF0E9159D8A052EF0AF054EF66
:1014A2000AF073EF0AF0FF0E476EFF0E486E7CC023
:1014B20049F07DC04AF04750492648504A2290518F
:1014C200495C4A50800A4B6E9151800A4B58D8A011
:1014D2006DEF0AF06FEF0AF073EF0AF0660E7E6F9F
:1014E20075EF0AF0650E7E6F7CC074F07DC075F0FA
:1014F200670E8119D8A480EF0AF082EF0AF092EF0A
:101502000AF0660E7E19D8A489EF0AF08BEF0AF072
:1015120094EF0AF091BF92EF0AF090EF0AF094EF85
:101522000AF0744B752B660E7E19D8A49BEF0AF055
:101532009DEF0AF0BDEF0AF091BFA4EF0AF0A2EF0F
:101542000AF0B0EF0AF0000E946F000E956F800E55
:10155200966F3F0E976F000E916F000E906F670EA1
:101562008119D8B4B7EF0AF0B9EF0AF0BDEF0AF06B
:101572009051742791517523000E8B6F000E8A6F64
:101582008CC082F08DC083F08EC084F08FC085F055
:1015920094C060F095C061F096C062F097C063F0AD
:1015A2004EEF0BF082C013F083C014F084C015F02C
:1015B20085C016F094C017F095C018F096C019F0C7
:1015C20097C01AF06BEC15F013C02CF014C02DF07C
:1015D20015C02EF016C02FF038EC17F02CC086F094
:1015E2002DC087F02EC088F02FC089F086C005F08C
:1015F20087C006F088C007F089C008F086EC1AF0B0
:1016020005C078F006C079F082C01EF083C01FF0DA
:1016120084C020F085C021F094C009F095C00AF082
:1016220096C00BF097C00CF086C005F087C006F09C
:1016320088C007F089C008F056EC13F005C022F00C
:1016420006C023F007C024F008C025F04CEC22F0BD
:101652001EC082F01FC083F020C084F021C085F03C
:1016620094C013F095C014F096C015F097C016F010
:10167200000E176E000E186E200E196E410E1A6EB5
:101682006BEC15F013C094F014C095F015C096F0F1
:1016920016C097F000018A4B8B2B74518A5D8B51D7
:1016A200800A476E7551800A4758D8A05BEF0BF04D
:1016B2005DEF0BF0D3EF0AF094C005F095C006F091
:1016C20096C007F097C008F0000E096E000E0A6E71
:1016D200A00E0B6E400E0C6E56EC13F005C086F099
:1016E20006C087F007C088F008C089F082C01EF0EB
:1016F20083C01FF084C020F085C021F086C022F094
:1017020087C023F088C024F089C025F009EC1BF0C3
:10171200D8B08EEF0BF090EF0BF09BEF0BF0000EBA
:101722000001866F000E876F000E886F000E896FB2
:10173200C4EF0BF082C005F083C006F084C007F04E
:1017420085C008F086C009F087C00AF088C00BF097
:1017520089C00CF057EC1EF0D8A0B2EF0BF0B4EF3A
:101762000BF0C4EF0BF0000178B1BAEF0BF0BCEF55
:101772000BF0C4EF0BF0000E866F000E876F000EA9
:10178200886F000E896F8CC005F08DC006F08EC088
:1017920007F08FC008F086C009F087C00AF088C041
:1017A2000BF089C00CF0F6EC10F005C082F006C018
:1017B20083F007C084F008C085F060C094F061C077
:1017C20095F062C096F063C097F0650E00017E1935
:1017D200D8B4EEEF0BF0F0EF0BF0F6EF0BF090C099
:1017E20076F091C077F0FAEF0BF0000E776F000EF3
:1017F200766F000E736F000E726F000E716F000E27
:10180200706F000E8B6F000E8A6FF5EF0CF082C0C6
:1018120013F083C014F084C015F085C016F094C094
:1018220017F095C018F096C019F097C01AF06BEC3B
:1018320015F013C02CF014C02DF015C02EF016C0F8
:101842002FF038EC17F02CC086F02DC087F02EC098
:1018520088F02FC089F086C005F087C006F088C0E6
:1018620007F089C008F086EC1AF005C078F006C0CF
:1018720079F00001F4B940EF0CF042EF0CF05FEFA9
:101882000CF078517911D8A449EF0CF04BEF0CF021
:101892005FEF0CF0670E8119D8A452EF0CF054EFF1
:1018A2000CF05FEF0CF077BF5BEF0CF059EF0CF030
:1018B2005FEF0CF0704B712BA9EF0CF072517311AA
:1018C200D8A466EF0CF068EF0CF092EF0CF077BF43
:1018D2006FEF0CF06DEF0CF092EF0CF0100E922502
:1018E200D96E010E9321DA6E2E0EDF6E924B932B80
:1018F2007F07D8A08007000E736F010E726F92EF00
:101902000CF0100E9225D96E010E9321DA6E300E74
:10191200DF6E924B932B7F07D8A080077007D8A069
:10192200710770517111D8A499EF0CF09BEF0CF074
:1019320082EF0CF0100E9225D96E010E9321DA6E11
:101942007851300FDF6E924B932B7F07D8A0800720
:1019520082C01EF083C01FF084C020F085C021F039
:1019620094C009F095C00AF096C00BF097C00CF035
:1019720086C005F087C006F088C007F089C008F06D
:1019820056EC13F005C022F006C023F007C024F085
:1019920008C025F04CEC22F01EC082F01FC083F07C
:1019A20020C084F021C085F094C013F095C014F0DB
:1019B20096C015F097C016F0000E176E000E186E46
:1019C200200E196E410E1A6E6BEC15F013C094F0D6
:1019D20014C095F015C096F016C097F00001760776
:1019E200D8A077078A4B8B2B74518A5D8B51800A62
:1019F200476E7551800A4758D8B002EF0DF004EFD8
:101A02000DF012EF0DF093BF10EF0DF0935109E1BD
:101A12004B0E925DD8A010EF0DF012EF0DF008EF13
:101A22000CF072517311D8A419EF0DF01BEF0DF0E9
:101A32002CEF0DF0F4A920EF0DF022EF0DF02CEFBA
:101A42000DF0100E9225D96E010E9321DA6E2E0E34
:101A5200DF6E924B932B100E9225D96E010E9321BD
:101A6200DA6E000EDF6E650E7E19D8A43BEF0DF024
:101A72003DEF0DF00DEF0EF0000E8B6F4F0E8A6FE3
:101A8200100E8A25D96E010E8B21DA6E000EDF6EE2
:101A9200000E7B6F000E7A6F91BF54EF0DF052EF84
:101AA2000DF05CEF0DF0000E7B6F010E7A6F906D02
:101AB200911FD8B0912B000E7D6F020E7C6F8DEFBF
:101AC2000DF08A07D8A08B07100E8A25D96E010E59
:101AD2008B21DA6E90C005F091C006F0000E086E00
:101AE2000A0E076EFFEC1DF00550300FDF6E90C03E
:101AF20005F091C006F0000E086E0A0E076EDBECD0
:101B02001CF005C090F006C091F000017C07D8A03F
:101B12007D077F07D8A0800790519111D8A494EF38
:101B22000DF096EF0DF062EF0DF07DBFA3EF0DF01B
:101B32007D5106E17C05D8B0A1EF0DF0A3EF0DF0C9
:101B420062EF0DF08A07D8A08B077A517B11D8A4D7
:101B5200ADEF0DF0AFEF0DF0B5EF0DF0000E6B6FC6
:101B62002B0E6A6FB9EF0DF0000E6B6F2D0E6A6FC0
:101B7200100E8A25D96E010E8B21DA6E6AC0DFFF44
:101B82007F07D8A080078A07D8A08B07BF0E476EB1
:101B9200FF0E486E4650496E4A6A475049264850E1
:101BA2004A224A500AE11A0E495CD8A0DBEF0DF036
:101BB200DEEF0DF0010EDFEF0DF0000E6E6F6F6BBA
:101BC2006E516F11D8A4E8EF0DF0EAEF0DF0F0EFCF
:101BD2000DF0000E6D6F650E6C6FF4EF0DF0000EE0
:101BE2006D6F450E6C6F100E8A25D96E010E8B211A
:101BF200DA6E6CC0DFFF7F07D8A08007100E922537
:101C0200056E010E9321066E100E8A25076E010ED7
:101C12008B21086EC8EC21F040C017F041C018F0CB
:101C2200100E196E010E1A6E7FC01BF080C01CF0E0
:101C320078EC1CF017C040F018C041F012004EC002
:101C4200D9FF4FC0DAFFDECFF6FFDDCFF7FFF86A2C
:101C52000800F550250AD8A431EF0EF033EF0EF04C
:101C6200D9EF10F04EC0D9FF4FC0DAFFDE2A000EC6
:101C7200DD22000E0001F16F000EF06FF0C0F4F0F3
:101C8200F1C0F5F0F269F3694EC0D9FF4FC0DAFF37
:101C9200DECFF6FFDDCFF7FFF86A0800F5502A0A1B
:101CA200D8A456EF0EF058EF0EF081EF0EF04EC0B2
:101CB200D9FF4FC0DAFFDE2A000EDD2250C0D9FF65
:101CC20051C0DAFFDFCF52F0020EDE26DFCF53F033
:101CD200000EDD2252C0D9FF53C0DAFFDECFF0F092
:101CE200DDCFF1F0F1BF7AEF0EF078EF0EF0C6EF34
:101CF2000EF0F481F06DF11FD8B0F12BC6EF0EF0AB
:101D02004EC0D9FF4FC0DAFFDECF0CF0DDCF0DF0B1
:101D12001BEC19F00CC0F0F00DC0F1F098EF0EF0D2
:101D22004EC0D9FF4FC0DAFFDE2A000EDD22D00EF0
:101D3200526EFF0E536E4EC0D9FF4FC0DAFFDECF98
:101D4200F6FFDDCFF7FFF86A0800F550546E556ACA
:101D5200525054265350552255500AE10A0E545CF3
:101D6200D8A0B6EF0EF0B9EF0EF0010EBAEF0EF0FA
:101D7200000E0001986F996B98519911D8A4C4EF85
:101D82000EF0C6EF0EF091EF0EF04EC0D9FF4FC02D
:101D9200DAFFDECFF6FFDDCFF7FFF86A0800F55075
:101DA2002E0AD8A4D7EF0EF0D9EF0EF059EF0FF0AC
:101DB200000EF36F000EF26F4EC0D9FF4FC0DAFF74
:101DC200DE2A000EDD224EC0D9FF4FC0DAFFDECF81
:101DD200F6FFDDCFF7FFF86A0800F5502A0AD8A40B
:101DE200F5EF0EF0F7EF0EF014EF0FF04EC0D9FF43
:101DF2004FC0DAFFDE2A000EDD2250C0D9FF51C0EB
:101E0200DAFFDFCF52F0020EDE26DFCF53F0000EF4
:101E1200DD2252C0D9FF53C0DAFFDECFF2F0DDCFB0
:101E2200F3F059EF0FF04EC0D9FF4FC0DAFFDECF0B
:101E32000CF0DDCF0DF01BEC19F00CC0F2F00DC070
:101E4200F3F02BEF0FF04EC0D9FF4FC0DAFFDE2ABE
:101E5200000EDD22D00E526EFF0E536E4EC0D9FF21
:101E62004FC0DAFFDECFF6FFDDCFF7FFF86A0800DA
:101E7200F550546E556A52505426535055225550BF
:101E82000AE10A0E545CD8A049EF0FF04CEF0FF0B4
:101E9200010E4DEF0FF0000E00019A6F9B6B9A51ED
:101EA2009B11D8A457EF0FF059EF0FF024EF0FF06A
:101EB2004EC0D9FF4FC0DAFFDECFF6FFDDCFF7FF0E
:101EC200F86A0800F5500B6E0C6A98EC21F00B5082
:101ED2000001A26FA251D8B471EF0FF073EF0FF0AF
:101EE200AFEF0FF04EC0D9FF4FC0DAFFDECF52F096
:101EF200DDCF53F0010E5226000E532252C0F6FFE0
:101F020053C0F7FFF86A0800F5500B6E0C6A98ECA4
:101F120021F00B500001A36FA351D8B493EF0FF03F
:101F220095EF0FF0AFEF0FF04EC0D9FF4FC0DAFFC1
:101F3200DECF52F0DDCF53F0020E5226000E5322B6
:101F420052C0F6FF53C0F7FFF86A0800F5500B6E57
:101F52000C6A98EC21F00B500001A46F660EA219D6
:101F6200D8A4B6EF0FF0B8EF0FF0F9EF0FF04EC0B4
:101F7200D9FF4FC0DAFFDECFF6FFDDCFF7FFF86AF9
:101F82000800F5CFA5F04EC0D9FF4FC0DAFFDE2A18
:101F9200000EDD2250C0D9FF51C0DAFFDFCF52F070
:101FA200040EDE26DFCF53F0000EDD2252C0D9FF31
:101FB20053C0DAFFDECF9EF0DECF9FF0DECFA0F07F
:101FC200DECFA1F04CC040F04DC041F09EC042F0C7
:101FD2009FC043F0A0C044F0A1C045F0A5C046F0A8
:101FE20021EC08F040C04CF041C04DF0F5EF10F08C
:101FF200A20E056E000E066E3B0E076E100E086EE8
:10200200000E0A6E020E096E0AEC1CF00550061054
:10201200D8A40EEF10F010EF10F0A2EF10F04EC0A7
:10202200D9FF4FC0DAFFDECF52F0DDCF53F0010E01
:102032005226000E532252C0F6FF53C0F7FFF86A31
:102042000800F5CFA5F0BF0E526EFF0E536E4EC0C4
:10205200D9FF4FC0DAFFDECFF6FFDDCFF7FFF86A18
:102062000800F550546E556A52505426535055226A
:1020720055500AE11A0E545CD8A042EF10F045EF19
:1020820010F0010E46EF10F0000E00019C6F9D6BE8
:102092009C519D11D8B450EF10F052EF10F06CEF3C
:1020A20010F050C0D9FF51C0DAFFDFCF52F0040E5A
:1020B200DE26DFCF53F0000EDD2252C0D9FF53C01F
:1020C200DAFFDECF9EF0DECF9FF0DECFA0F0DECFD4
:1020D200A1F084EF10F050C0D9FF51C0DAFFDFCF7A
:1020E20052F0040EDE26DFCF53F0000EDD2252C086
:1020F200D9FF53C0DAFFDECF9EF0DECF9FF0DECFF6
:10210200A0F0DECFA1F0020E4EC0D9FF4FC0DAFF21
:10211200DE26000EDD224CC040F04DC041F09EC0D4
:1021220042F09FC043F0A0C044F0A1C045F0A5C05A
:1021320046F021EC08F040C04CF041C04DF0F5EF04
:1021420010F04EC0D9FF4FC0DAFFDECFF6FFDDCF71
:10215200F7FFF86A0800F550250AD8A4B3EF10F08B
:10216200B5EF10F0CCEF10F04EC0D9FF4FC0DAFF40
:10217200DE2A000EDD22000E086E250E076E4CC010
:1021820009F04DC00AF0FFEC1EF0000E4D6E010E7C
:102192004C6EF5EF10F04EC0D9FF4FC0DAFFDE2AC9
:1021A200000EDD22000E4D6E000E4C6EF5EF10F0AB
:1021B2004EC0D9FF4FC0DAFFDECFF6FFDDCFF7FF0B
:1021C200F86A0800F550076E086A4CC009F04DC065
:1021D2000AF0FFEC1EF04EC0D9FF4FC0DAFFDE2A34
:1021E200000EDD22C6EF10F012000850800B116EB7
:1021F20008500824136E07AE01EF11F003EF11F03F
:1022020004EF11F013801350D8B40AEF11F00CEF61
:1022120011F021EF11F01328D8A412EF11F014EFEE
:1022220011F01CEF11F0000E056E000E066E000E8E
:10223200076E000E086E078E000E086E29EF11F071
:10224200000E056E000E066E000E076E000E086E82
:102252000C50800B126E11501218D8B433EF11F0DB
:1022620035EF11F036EF11F0118C0C500C24126E78
:102272000BAE3EEF11F040EF11F041EF11F0128082
:102282001250D8B447EF11F049EF11F05EEF11F0A0
:102292001228D8A44FEF11F051EF11F059EF11F0BD
:1022A200000E096E000E0A6E000E0B6E000E0C6E12
:1022B2000B8E000E0C6E66EF11F0000E096E000E12
:1022C2000A6E000E0B6E000E0C6E1350125CD8B02C
:1022D2006DEF11F06FEF11F096EF11F011AC74EF9A
:1022E20011F076EF11F078EF11F0800E111A13C091
:1022F20014F012C013F014C012F005C014F009C09B
:1023020005F014C009F006C014F00AC006F014C0AB
:102312000AF007C014F00BC007F014C00BF008C09D
:1023220014F00CC008F014C00CF0000E146E135020
:1023320012C00DF00E6A0D5E000E0E5A0EBEABEF0D
:1023420011F00E5009E11A0E0D5CD8A0ABEF11F09E
:10235200ADEF11F0E4EF11F0055006100710081070
:10236200D8A4B6EF11F0B9EF11F0010EBAEF11F0E7
:10237200000E146E000E056E000E066E000E076E45
:10238200000E086E12C013F0EDEF11F014A0CCEFA6
:1023920011F0CEEF11F0D4EF11F0D8901430010902
:1023A200146ED6EF11F0D890143205A0DBEF11F0C5
:1023B200DDEF11F0DEEF11F0148E0834083207322F
:1023C20006320532132A1250135CD8A0EBEF11F03B
:1023D200EDEF11F0C7EF11F011BCF2EF11F0F4EFD5
:1023E20011F034EF12F01350D8A4FAEF11F0FCEF11
:1023F20011F006EF12F0000E056E000E066E000ED2
:10240200076E000E086E55EF13F0095005260A50AC
:1024120006220B5007220C50082208A013EF12F0DC
:1024220015EF12F0C1EF12F014A01AEF12F01CEF28
:1024320012F022EF12F0D89014300109146E24EF3A
:1024420012F0D890143205A029EF12F02BEF12F0FF
:102452002CEF12F0148E083408320732063205329D
:10246200132AC1EF12F00950055C0A5006580B50AE
:1024720007580850800A0D6E0C50800A0D58D8B0CB
:1024820045EF12F047EF12F072EF12F00550095CBF
:102492000D6E06500A580E6E07500B580F6E0850FC
:1024A2000C58106EFF0E0D24056EFF0E0E20066EE8
:1024B200FF0E0F20076EFF0E1020086E800E111AFD
:1024C200146C1450D8A468EF12F06AEF12F07AEF8D
:1024D20012F0010E0526000E0622072208227AEFCC
:1024E20012F00950055E0A50065A0B50075A0C505A
:1024F200085A0550061007100810D8A483EF12F0EE
:1025020085EF12F0BAEF12F01450D8A48BEF12F04C
:102512008DEF12F0BAEF12F0000E056E000E066E8D
:10252200000E076E000E086E55EF13F0D8900536B8
:1025320006360736083614AEA1EF12F0A3EF12F0FA
:10254200A4EF12F0058014A0A9EF12F0ABEF12F085
:10255200AFEF12F0D8801436B1EF12F0D8901436E3
:102562001350D8B4B7EF12F0B9EF12F0BAEF12F07D
:10257200130607AEBFEF12F0C1EF12F097EF12F0A1
:10258200000E126E14AEC8EF12F0CAEF12F0E2EFB4
:1025920012F014C00DF07F0E0D16D8B4D3EF12F066
:1025A200D5EF12F0D9EF12F0010E126EE2EF12F037
:1025B20005A0DEEF12F0E0EF12F0E2EF12F0D5EF3D
:1025C20012F01250D8B4E8EF12F0EAEF12F015EF61
:1025D20013F0010E0526000E06220722082208A08B
:1025E200F5EF12F0F7EF12F015EF13F005C00DF052
:1025F20006C00EF007C00FF008C010F01034103201
:102602000F320E320D320DC005F00EC006F00FC0B3
:1026120007F010C008F01328D8B412EF13F014EF2B
:1026220013F015EF13F0132A1328D8B41BEF13F08D
:102632001DEF13F025EF13F01350D8A423EF13F07E
:1026420025EF13F037EF13F0000E056E000E066E45
:10265200000E076E000E086E1350D8A433EF13F06D
:1026620035EF13F037EF13F0000E116E13A03CEFAD
:1026720013F03EEF13F041EF13F0078E42EF13F029
:10268200079ED8901330086E11AE4AEF13F04CEF4C
:1026920013F04DEF13F0088E05C005F006C006F0EA
:1026A20007C007F008C008F012000850800B116E36
:1026B20008500824176E07AE61EF13F063EF13F0B2
:1026C20064EF13F017801750D8B46AEF13F06CEF71
:1026D20013F07FEF13F01728D8A472EF13F074EF02
:1026E20013F07CEF13F0000E056E000E066E000E66
:1026F200076E000E086E078E87EF13F0000E056E50
:10270200000E066E000E076E000E086E0C50800B57
:10271200111A0C500C24126E0BAE92EF13F094EFC0
:1027220013F095EF13F012801250D8B49BEF13F010
:102732009DEF13F0B0EF13F01228D8A4A3EF13F01B
:10274200A5EF13F0ADEF13F0000E096E000E0A6E46
:10275200000E0B6E000E0C6E0B8EB8EF13F0000E17
:10276200096E000E0A6E000E0B6E000E0C6E1250F9
:10277200D8B4BEEF13F0C0EF13F0C8EF13F0175048
:10278200D8A4C6EF13F0C8EF13F0D2EF13F0000E87
:10279200056E000E066E000E076E000E086E6AEFE2
:1027A20015F00B500502F3CF1CF0F4CF1DF01C50B6
:1027B200136E146A156A166A1D50186E196A1A6A1F
:1027C2001B6A0A500602F3CF1CF0F4CF1DF01C5016
:1027D2001326000E1422152216221D501826000E52
:1027E20019221A221B2209500702F3CF1CF0F4CF40
:1027F2001DF01C501326000E1422152216221D5005
:102802001826000E19221A221B2215C016F014C017
:1028120015F013C014F0136A09500602F3CF1CF02E
:10282200F4CF1DF01C5013261D501422000E152249
:10283200000E16220A500502F3CF1CF0F4CF1DF051
:102842001C5013261D501422000E1522000E1622B3
:1028520015C016F014C015F013C014F0136A095015
:102862000502F3CF1CF0F4CF1DF01C5013261D50AF
:102872001422000E1522000E16220B500602F3CF70
:102882001CF0F4CF1DF01C5018261D501922000E0A
:102892001A22000E1B220A500702F3CF1CF0F4CFBB
:1028A2001DF01C5018261D501922000E1A22000E6F
:1028B2001B220B500702F3CF1CF0F4CF1DF01C506B
:1028C2000D6E1D500E6E0F6A106A0FC010F00EC012
:1028D2000FF00DC00EF00D6A0D5018260E50192281
:1028E2000F501A2210501B2213C00DF014C00EF00C
:1028F20015C00FF016C010F0190E85EF14F0D89025
:1029020010320F320E320D32E82E80EF14F00D50DD
:1029120018260E5019220F501A2210501B2215C0D1
:1029220016F014C015F013C014F0136A125017C039
:102932000DF00E6A0D26000E0E22820E0D241C6E64
:10294200FF0E0E201D6EBBEF14F0D890183619360C
:102952001A361B3616AEB0EF14F0B2EF14F0B3EF26
:1029620014F01880D89013361436153616361C0615
:10297200D8A01D061AAEC0EF14F0C2EF14F0A6EFF5
:1029820014F0000E126E16AEC9EF14F0CBEF14F075
:10299200EFEF14F0FF0E13140D6EFF0E14140E6EF3
:1029A200FF0E15140F6E7F0E1614106E0D500E10C2
:1029B2000F101010D8B4E0EF14F0E2EF14F0E6EFCD
:1029C20014F0010E126EEFEF14F018A0EBEF14F0FA
:1029D200EDEF14F0EFEF14F0E2EF14F01250D8B470
:1029E200F5EF14F0F7EF14F01BEF15F0010E1826B7
:1029F200000E19221A221B221BA002EF15F004EF6F
:102A020015F01BEF15F018C00DF019C00EF01AC02A
:102A12000FF01BC010F0103410320F320E320D3294
:102A22000DC018F00EC019F00FC01AF010C01BF044
:102A32001C4A1D2A1DBE26EF15F01D5008E11C2858
:102A4200D8A026EF15F028EF15F032EF15F0000EA2
:102A5200186E000E196E800E1A6E7F0E1B6E60EFDE
:102A620015F01DBE3FEF15F01D5006E11C04D8B055
:102A72003DEF15F03FEF15F04BEF15F0000E186E1D
:102A8200000E196E000E1A6E000E1B6E000E116EF5
:102A920060EF15F01CC017F0FF0E1816FF0E191686
:102AA2007F0E1A16000E1B1617A05AEF15F05CEFD8
:102AB20015F05DEF15F01A8ED89017301B6E11507D
:102AC2001B1218C005F019C006F01AC007F01BC08F
:102AD20008F012001650800B236E165016242A6E30
:102AE20015AE76EF15F078EF15F079EF15F02A8034
:102AF2002A50D8B47FEF15F081EF15F096EF15F05C
:102B02002A28D8A487EF15F089EF15F091EF15F078
:102B1200000E136E000E146E000E156E000E166E71
:102B2200158E000E166E9EEF15F0000E136E000E3F
:102B3200146E000E156E000E166E1A50800B231ABC
:102B42001A501A242B6E19AEA9EF15F0ABEF15F03F
:102B5200ACEF15F02B802B50D8B4B2EF15F0B4EFD8
:102B620015F0C9EF15F02B28D8A4BAEF15F0BCEF79
:102B720015F0C4EF15F0000E176E000E186E000E61
:102B8200196E000E1A6E198E000E1A6ED1EF15F024
:102B9200000E176E000E186E000E196E000E1A6EE1
:102BA2001750181019101A10D8A4DAEF15F0DCEF2C
:102BB20015F0F4EF15F0000E136E000E146E000EF9
:102BC200156E000E166E800E15127F0E1612235011
:102BD200161213C013F014C014F015C015F016C06D
:102BE20016F037EF17F02A50D8A4FAEF15F0FCEFE1
:102BF20015F006EF16F0000E136E000E146E000EA6
:102C0200156E000E166E37EF17F02B502AC01BF010
:102C12001C6A1B5E000E1C5A7F0E1B24246E000EC3
:102C22001C20256E13C01FF014C020F015C021F027
:102C320016C022F0000E136E000E146E000E156EFA
:102C4200000E166E000E266E000E276E000E286E07
:102C5200000E296E000E2B6E67EF16F02B50D8B4C3
:102C620035EF16F037EF16F04EEF16F0D8901F360C
:102C7200203621362236D8901336143615361636BB
:102C820029AE46EF16F048EF16F049EF16F0138022
:102C9200D890263627362836293617501F5C18500A
:102CA2002058195021581A502258D8A05BEF16F01C
:102CB2005DEF16F066EF16F0298C17501F5E185064
:102CC200205A1950215A1A50225A2B2A190E2B64B3
:102CD2006DEF16F06FEF16F02FEF16F01F50201069
:102CE20021102210D8B478EF16F07AEF16F092EF96
:102CF20016F0268092EF16F0D89013361436153659
:102D0200163629AE87EF16F089EF16F08AEF16F025
:102D12001380D89026362736283629362406D8A09E
:102D2200250615AE97EF16F099EF16F07DEF16F027
:102D3200000E2B6E29AEA0EF16F0A2EF16F0C6EF32
:102D420016F0FF0E26141B6EFF0E27141C6EFF0ECC
:102D520028141D6E7F0E29141E6E1B501C101D1090
:102D62001E10D8B4B7EF16F0B9EF16F0BDEF16F09B
:102D7200010E2B6EC6EF16F013A0C2EF16F0C4EFD1
:102D820016F0C6EF16F0B9EF16F02B50D8B4CCEF10
:102D920016F0CEEF16F0F2EF16F0010E1326000E2B
:102DA20014221522162216A0D9EF16F0DBEF16F028
:102DB200F2EF16F013C01BF014C01CF015C01DF08A
:102DC20016C01EF01E341E321D321C321B321BC0B6
:102DD20013F01CC014F01DC015F01EC016F0244ADA
:102DE200252A25BEFDEF16F0255008E12428D8A09B
:102DF200FDEF16F0FFEF16F00AEF17F0000E256E4A
:102E02002468000E136E000E146E000E156E000E76
:102E1200166E25BE17EF17F0255006E12404D8B030
:102E220015EF17F017EF17F025EF17F0000E256ECC
:102E3200000E246E000E136E000E146E000E156E40
:102E4200000E166E000E236E24C02AF02AA02CEF6C
:102E520017F02EEF17F031EF17F0158E32EF17F053
:102E6200159ED8902A30166EE8EF15F01200E6C0D3
:102E72003CF0E7C03DF0E8C03EF0E9C03FF02CC0B6
:102E82003CF02DC03DF02EC03EF02FC03FF0810E31
:102E9200306EFF0E316E3CC032F03DC033F03EC0AA
:102EA20034F03FC035F0180E5CEF17F0D890353291
:102EB200343233323232E82E57EF17F032503024A8
:102EC2003A6E000E31203B6E3BBE71EF17F03B5065
:102ED20009E1170E3A5CD8A071EF17F073EF17F003
:102EE2007DEF17F02CC02CF02DC02DF02EC02EF04F
:102EF2002FC02FF040EF18F03BBE82EF17F084EFA7
:102F020017F0F4EF17F03AC030F0FF0E316EFF0EFB
:102F1200326E7F0E336E000E346E306693EF17F012
:102F22009BEF17F034343432333232323132302EB6
:102F32008EEF17F031C036F032C037F033C038F0C0
:102F420034C039F036503C14306E37503D14316E77
:102F520038503E14326E39503F14336E30503110B7
:102F620032103310D8A4B8EF17F0BAEF17F0BCEF55
:102F720017F073EF17F03CC030F03DC031F03EC0A7
:102F820032F03FC033F0200ECCEF17F0D89033323E
:102F9200323231323032E82EC7EF17F03050311072
:102FA20032103310D8B4D8EF17F0DAEF17F0E2EF9F
:102FB20017F036503C2637503D2238503E223950C9
:102FC2003F22361C306E371C316E381C326E391C73
:102FD200336E30503C1631503D1632503E1633504F
:102FE2003F1638EF18F03CC030F03DC031F03EC023
:102FF20032F03FC033F0200E04EF18F0D890333295
:10300200323231323032E82EFFEF17F030503110C9
:1030120032103310D8A410EF18F012EF18F01CEF92
:1030220018F0000E3C6E000E3D6E000E3E6E000E5D
:103032003F6E38EF18F0D8903C34306E3D34316E2C
:103042003E34326E3F34336E305031103210331012
:10305200D8B42EEF18F030EF18F038EF18F0000E59
:103062003C6E000E3D6E800E3E6EBF0E3F6E3CC04B
:103072002CF03DC02DF03EC02EF03FC02FF01200CC
:103082000D6E0D50D8B448EF18F04AEF18F06CEFFF
:1030920018F008BE51EF18F04FEF18F06CEF18F06F
:1030A20005C009F006C00AF007C00BF008C00CF01A
:1030B200091E0A1E0B1E0C1E092A000E0A220B22D2
:1030C2000C2209C00FF00AC010F00BC011F00CC0A6
:1030D20012F074EF18F005C00FF006C010F007C030
:1030E20011F008C012F00550061007100810D8A4FD
:1030F2007DEF18F07FEF18F089EF18F0000E056EE3
:10310200000E066E000E076E000E086E1AEF19F022
:10311200960E0E6E93EF18F00E2AD89012321132DC
:1031220010320F32000E0F14096E000E10140A6EC8
:10313200000E11140B6EFE0E12140C6E09500A10C2
:103142000B100C10D8A4A8EF18F0AAEF18F08DEF0E
:1031520018F0B8EF18F00E2A010E0F26000E1022FA
:1031620011221222D8901232113210320F32000E76
:103172000F14096E000E10140A6E000E11140B6E5D
:10318200FF0E12140C6E09500A100B100C10D8A46A
:10319200CDEF18F0CFEF18F0ACEF18F0D7EF18F032
:1031A2000E06D8900F3610361136123611BEDCEFED
:1031B20018F0DEEF18F0E6EF18F0020E0E60E4EF02
:1031C20018F0E6EF18F0D1EF18F00EB0EBEF18F0B0
:1031D200EDEF18F0EEEF18F0119ED8900E320EC0FF
:1031E20009F00A6A0B6A0C6A09C00CF00B6A0A6AD7
:1031F200096A09500F120A5010120B5011120C508A
:1032020012120D50D8B408EF19F00AEF19F012EFAC
:1032120019F008BE11EF19F00FEF19F012EF19F0C3
:10322200128E0FC005F010C006F011C007F012C0D8
:1032320008F01200000E1A6E000E196E000E136EC8
:10324200000E126E27EF19F00C4A0D2A010E186EAD
:103252000CC0F6FF0DC0F7FFF86A0800F550200A0F
:10326200D8B436EF19F038EF19F056EF19F0F70E1F
:103272000E6EFF0E0F6E0CC0F6FF0DC0F7FFF86A60
:103282000800F550106E116A0E5010260F501122D0
:10329200115009E1050E105CD8A052EF19F054EF5D
:1032A20019F056EF19F0000E186E18C014F0156AD6
:1032B20014501510D8A460EF19F062EF19F025EF41
:1032C20019F06CEF19F0000E136E010E126E0C4A1B
:1032D2000D2AA3EF19F00CC0F6FF0DC0F7FFF86A34
:1032E2000800F5500E6E0F6A0F50000AD8B47CEF3A
:1032F20019F0A3EF19F00E502B0AD8B468EF19F0A9
:10330200060AD8B464EF19F0A3EF19F019C005F05A
:103312001AC006F0000E086E0A0E076E28EC24F0A2
:103322000CC0F6FF0DC0F7FFF86A0800F550055E05
:10333200000E065A300E0524196E000E06201A6E73
:1033420068EF19F0D00E0E6EFF0E0F6E0CC0F6FF76
:103352000DC0F7FFF86A0800F550106E116A0E50A2
:1033620010260F50112211500AE10A0E105CD8A04B
:10337200BDEF19F0C0EF19F0010EC1EF19F0000E08
:10338200166E176A16501710D8A4CAEF19F0CCEFB0
:1033920019F087EF19F012501310D8A4D3EF19F0D7
:1033A200D5EF19F0E3EF19F019C00EF01AC00FF0C3
:1033B2000E1E0F1E0E4A0F2A0EC00CF00FC00DF08B
:1033C200E7EF19F019C00CF01AC00DF0120085ECED
:1033D20024F0F28EF28C0C0E166E300E176E3F0E2B
:1033E200FCEC20F0060E0001B96F130EB86FAD0EA3
:1033F200E82EFED7B82FFCD7B92FFAD700F000F08D
:103402000C0E166E020E176E3F0EFCEC20F00C0E28
:10341200166E000E176E3F0EFCEC20F0040E166EB8
:103422003F0E91EC1FF016500101656F6529656F23
:10343200040E166E65C117F03F0EFCEC20F0060E6E
:10344200166E3F0E8AEC20F00101646F070E166EB5
:103452003F0E8AEC20F00001B86FB8510101666F8F
:10346200676B66510001B86F01016451666FB8C0A5
:1034720067F167A93FEF1AF041EF1AF050EF1AF027
:1034820066510008666F6751D8A0E82A0108676F85
:103492003E0E0001AE6F100EAF6F14EC24F066C149
:1034A20005F067C106F0076A086A000E41EC18F0E1
:1034B20005C013F006C014F007C015F008C016F0DE
:1034C200000E176E000E186EC80E196E420E1A6E9E
:1034D2006BEC15F013C060F114C061F115C062F11C
:1034E20016C063F1210E0001AE6F100EAF6F60C106
:1034F200B0F061C1B1F062C1B2F063C1B3F014ECDB
:1035020024F0F3EF19F058EF00F0073408340E6E90
:103512000E50D8A48FEF1AF091EF1AF09BEF1AF029
:10352200000E056E000E066E000E076E000E086E8F
:1035320008EF1BF005C009F006C00AF007C00BF047
:1035420008C00CF0200EABEF1AF0D8900C320B3200
:103552000A320932E82EA6EF1AF009500D6E078ED4
:10356200FF0E0516FF0E0616FF0E0716000E0816B2
:10357200960E0E5E0EBEC2EF1AF0C0EF1AF0D8EF32
:103582001AF00E50800A970FD8B0CAEF1AF0CCEF9B
:103592001AF0CEEF1AF091EF1AF0D89008320732F3
:1035A200063205320E3ECEEF1AF0F0EF1AF01F0E81
:1035B2000E64DEEF1AF0E0EF1AF0E8EF1AF091EF86
:1035C2001AF0D89005360636073608360E060E5023
:1035D200D8A4EEEF1AF0F0EF1AF0E2EF1AF00D5065
:1035E200D8B4F6EF1AF0F8EF1AF000EF1BF0081E4D
:1035F200071E061E056C000E06220722082205C0C1
:1036020005F006C006F007C007F008C008F0120077
:10361200000E1E14266E000E1F14276E800E20143C
:10362200286E7F0E2114296E26502710281029108B
:10363200D8A41EEF1BF020EF1BF028EF1BF0000EAA
:103642001E6E000E1F6E000E206E000E216E000E0A
:103652002214266E000E2314276E800E2414286E68
:103662007F0E2514296E2650271028102910D8A461
:103672003DEF1BF03FEF1BF047EF1BF0000E226EF9
:10368200000E236E000E246E000E256E21AE4CEF4E
:103692001BF04EEF1BF057EF1BF01E6C1F1ED8B035
:1036A2001F2A201ED8B0202A800E215625AE5CEF9C
:1036B2001BF05EEF1BF067EF1BF0226C231ED8B0ED
:1036C200232A241ED8B0242A800E2556000E1E1A44
:1036D200000E1F1A000E201A800E211A000E221A46
:1036E200000E231A000E241A800E251A22501E5C88
:1036F20023501F582450205825502158D8B084EF09
:103702001BF086EF1BF089EF1BF0D8908AEF1BF0BD
:10371200D8801200EAC00FF0EBC010F0ECC011F03C
:10372200EDC012F005C00FF006C010F007C011F096
:1037320008C012F00FC009F010C00AF011C00BF05F
:1037420012C00CF0180EABEF1BF0D8900C320B32FB
:103752000A320932E82EA6EF1BF009500D6E0E6AEE
:103762000D500E10D8A4B8EF1BF0BAEF1BF0DAEF31
:103772001BF0D8900F34096E10340A6E11340B6EA0
:1037820012340C6E09500A100B100C10D8A4CCEF96
:103792001BF0CEEF1BF0D4EF1BF0000E066E020EF4
:1037A200056E09EF1CF0000E066E030E056E09EFA2
:1037B2001CF00D280E10D8A4E1EF1BF0E3EF1BF074
:1037C20005EF1CF00FC009F010C00AF011C00BF099
:1037D20012C00CF0090ED89009360A360B360C3698
:1037E200E82EECEF1BF009500A100B100C10D8B4A5
:1037F200FDEF1BF000EF1CF0010E01EF1CF0000EBC
:10380200056E066A09EF1CF0000E066E040E056EC8
:10381200120005C00CF006C00DF007C00EF008C083
:103822000FF00906D8A00A06092806E10A28D8A43A
:103832001DEF1CF01FEF1CF02CEF1CF0000E066EAB
:10384200000E056E77EF1CF00C4A0D2A0E4A0F2A65
:103852000906D8A00A060CC0D9FF0DC0DAFFDF5056
:10386200D8B436EF1CF038EF1CF065EF1CF00EC038
:10387200F6FF0FC0F7FFF86A0800F5500009D8B448
:1038820045EF1CF047EF1CF065EF1CF009500A10E1
:10389200D8B44EEF1CF050EF1CF065EF1CF00CC0DA
:1038A200D9FF0DC0DAFFDF500B6E0EC0F6FF0FC05E
:1038B200F7FFF86A0800F5500B18D8B463EF1CF054
:1038C20065EF1CF025EF1CF00CC0D9FF0DC0DAFF2C
:1038D200DF500B6E0EC0F6FF0FC0F7FFF86A08004C
:1038E200F5500B5C056E066AD8A0060612000001B0
:1038F200F4A17EEF1CF080EF1CF08AEF1CF019C0DF
:1039020010F01AC011F017C012F018C013F06FECCB
:1039120022F01CBE8FEF1CF091EF1CF097EF1CF011
:103922001BC020F01CC021F09BEF1CF0000E216E8A
:10393200000E206E000E1F6E000E1E6EADEF1CF00C
:10394200000E086E200E076E17C009F018C00AF0AC
:10395200FFEC1EF01E4A1F2A20501E5C1F50800AD8
:103962001D6E2150800A1D58D8A0BAEF1CF0BCEF82
:103972001CF0A1EF1CF00001F4B1C2EF1CF0C4EF87
:103982001CF0CEEF1CF019C010F01AC011F017C0D5
:1039920012F018C013F06FEC22F019C005F01AC033
:1039A20006F048EC23F020500524176E2150062023
:1039B200186E1200000E0A6E08BEE4EF1CF0E2EF71
:1039C2001CF0EAEF1CF0076C081ED8B0082A010EA2
:1039D2000A6E06BEF1EF1CF0EFEF1CF0F7EF1CF0E1
:1039E200056C061ED8B0062A010E0A1A000E0C6ECD
:1039F200000E0B6E07500810D8B402EF1DF004EF52
:103A02001DF02CEF1DF0010E096E0CEF1DF0D89089
:103A120007360836092A08AE11EF1DF013EF1DF024
:103A220008EF1DF0D8900B360C360750055C085095
:103A32000658D8A01FEF1DF021EF1DF026EF1DF054
:103A42000750055E0850065A0B80D890083207329C
:103A5200092E13EF1DF00A50D8B432EF1DF034EFE7
:103A62001DF038EF1DF00B6C0C1ED8B00C2A0BC0E9
:103A720005F00CC006F012009AEC24F00009D8B44C
:103A820045EF1DF047EF1DF082EF1DF055EF1DF0E1
:103A92000DEC25F09EEF1DF009EC25F09EEF1DF0D8
:103AA20001EC25F09EEF1DF0CCC00EF0CDC00FF062
:103AB20002D866EF1DF00500FA6E0001C051FD6EDE
:103AC200C151FE6EFF6AFA501200106E116A115057
:103AD200000AD8B46FEF1DF051EF1DF01050010A2B
:103AE200D8B451EF1DF0030AD8B449EF1DF0010A12
:103AF200D8B44DEF1DF0070AD8B451EF1DF051EFC5
:103B02001DF00001DD91D7C0D9FFD8C0DAFFD74B35
:103B1200D82BDF5011EC25F00001D907D8A0DA0725
:103B2200D951DA11D8A498EF1DF09AEF1DF09DEF4C
:103B32001DF0060E9EEF1DF0030E1200DE0E58243D
:103B4200D96EDA6A000EDA22000EDF6EABA4ACEF99
:103B52001DF0AEEF1DF0C3EF1DF0DE0E5824D96E3E
:103B6200DA6A000EDA220001DF8202D8C3EF1DF00A
:103B72000500FA6E01016C51FD6E6D51FE6EFF6A19
:103B8200FA501200ABA2C8EF1DF0CAEF1DF0DFEF32
:103B92001DF0DE0E5824D96EDA6A000EDA22000118
:103BA200DF8402D8DFEF1DF00500FA6E01016A51D1
:103BB200FD6E6B51FE6EFF6AFA501200DE0E582443
:103BC200D96EDA6A000EDA22DF50D8B4EBEF1DF0BC
:103BD200EDEF1DF0FCEF1DF002D8FAEF1DF005002D
:103BE200FA6E01016851FD6E6951FE6EFF6AFA506C
:103BF2001200FEEF1DF0FFEC23F01200000E0A6E21
:103C020006BE08EF1EF006EF1EF00EEF1EF0056C6A
:103C1200061ED8B0062A010E0A6E08BE15EF1EF067
:103C220013EF1EF019EF1EF0076C081ED8B0082A19
:103C320007500810D8B420EF1EF022EF1EF046EF16
:103C42001EF0010E096E2AEF1EF0D89007360836D4
:103C5200092A08AE2FEF1EF031EF1EF026EF1EF0FC
:103C62000750055C08500658D8A03AEF1EF03CEF0A
:103C72001EF040EF1EF00750055E0850065AD8901D
:103C820008320732092E31EF1EF00A50D8B44CEF39
:103C92001EF04EEF1EF052EF1EF0056C061ED8B05D
:103CA200062A05C005F006C006F01200000E051433
:103CB2000D6E000E06140E6E800E07140F6E7F0E30
:103CC2000814106E0D500E100F101010D8A46CEFC7
:103CD2001EF06EEF1EF076EF1EF0000E056E000E67
:103CE200066E000E076E000E086E000E09140D6EB1
:103CF200000E0A140E6E800E0B140F6E7F0E0C1443
:103D0200106E0D500E100F101010D8A48BEF1EF075
:103D12008DEF1EF095EF1EF0000E096E000E0A6E7A
:103D2200000E0B6E000E0C6E095005180FE10A50C2
:103D320006180CE10B50071809E10C500818D8B40A
:103D4200A5EF1EF0A7EF1EF0AAEF1EF0D890ABEF82
:103D52001EF0D880120025EC25F0D7C0D9FFD8C0BC
:103D6200DAFFDF6E0001D74BD82BD907D8A0DA07CC
:103D7200D951DA11D8B4C0EF1EF0C2EF1EF0C7EF6E
:103D82001EF015EC25F0050EFEEF1EF0DD87D2EFDA
:103D92001EF0F5EC24F0FEEF1EF0F9EC24F0FEEF3D
:103DA2001EF0C6C00EF0C7C00FF002D8E2EF1EF040
:103DB2000500FA6EBA51FD6EBB51FE6EFF6AFA50F3
:103DC2001200106E116A1150000AD8B4EBEF1EF007
:103DD200CEEF1EF01050010AD8B4CEEF1EF0030A47
:103DE200D8B4CAEF1EF0010AD8B4CAEF1EF0070A0F
:103DF200D8B4CEEF1EF0CEEF1EF0120009500A101A
:103E0200D8B406EF1FF008EF1FF011EF1FF00950B2
:103E12000A10D8A40FEF1FF011EF1FF016EF1FF0DA
:103E22000750CEEC24F049EF1FF020EE04F00950C9
:103E3200D9260A50DA22DE50DE10D8B423EF1FF062
:103E420025EF1FF040EF1FF020EE04F00950D926B5
:103E52000A50DA2210EE02F00950E1260A50E2225C
:103E6200DE50E65CE650800A0F6EDE50800A0F5884
:103E7200D8B03EEF1FF040EF1FF049EF1FF020EEE9
:103E820002F00950D9260A50DA22DE2A000EDD227B
:103E92001200056E010E066E0001DDB553EF1FF034
:103EA20055EF1FF08FEF1FF005C0D6F0DD93DD85D3
:103EB200DD910E0EDB6F010ED56FF40ED46FDD8730
:103EC200560EBA6F4A0EBB6F000EC66F000EC76F5A
:103ED200560EBC6F4A0EBD6F000EC86F000EC96F42
:103EE200560EBE6F4A0EBF6F000ECA6F000ECB6F2A
:103EF200560EC06F4A0EC16F000ECC6F000ECD6F12
:103F0200520EC26F4A0EC36F000ECE6F000ECF6FFD
:103F120037EC25F04DEC24F0000E066E0650120030
:103F22001B6E000E1D6E000E1C6E1B504AEC1FF025
:103F32000009D8B49FEF1FF0A1EF1FF096EF1FF01A
:103F42004E0E0A6E470E0B6E1C0E0C6E000E0D6EA0
:103F520079EC24F0160E056E000E066E000E086E49
:103F6200010E076E3BEC24F0000E0A6E000E0B6E83
:103F7200000E0C6E000E0D6E6DEC24F0F1EC24F0D0
:103F8200E9EC23F0E806D8B4C9EF1FF0CBEF1FF03D
:103F9200C1EF1FF01DC018F01C50196E1850166E9C
:103FA20019C017F012000001DD87E5EF1FF005ECE4
:103FB20025F011EF20F023EC25F0030E11EF20F095
:103FC20001EC25F011EF20F0C6C00EF0C7C00FF0D3
:103FD20002D8F5EF1FF00500FA6EBA51FD6EBB5123
:103FE200FE6EFF6AFA501200106E116A1150000A3A
:103FF200D8B4FEEF1FF0E1EF1FF01050010AD8B461
:10400200E1EF1FF0030AD8B4D8EF1FF0010AD8B4C9
:10401200D8EF1FF0070AD8B4DCEF1FF0E1EF1FF072
:104022001200096E05500610D8B41AEF20F01CEFEA
:1040320020F036EF20F00950020DBA0EF324D96EAB
:10404200000EF420DA6E05C0DEFF06C0DDFF095067
:10405200020DC60EF324D96E000EF420DA6E07C0EC
:10406200DEFF08C0DDFF4EEF20F00950020DBA0E50
:10407200F324D96E000EF420DA6E560EDE6E4A0E6E
:10408200DD6E0950020DC60EF324D96E000EF42027
:10409200DA6E000EDE6E000EDD6E12009D9A3E0E8E
:1040A200056E3B0E066EDDEC24F09D98660E056EE5
:1040B200450E066ED8EC24F0080EB86E900EAB6E6C
:1040C200240EAC6ECF0EAF6E000EB06E720E056E89
:1040D2004A0E066EE7EC24F0360E056E4A0E066EA8
:1040E200E2EC24F03C0E056E4A0E066EECEC24F077
:1040F200000E0001F66F000E5A6E000E596E080E89
:10410200FB6F000E586E000E576E000E566E9D8AA3
:104112001200176E000E186E17504AEC1FF00009BD
:10412200D8B496EF20F098EF20F08DEF20F07A0EC1
:104132000A6E470E0B6E180E0C6E000E0D6E79ECA9
:1041420024F0160E056E000E066E000E086E010EAD
:10415200076E3BEC24F0000E0A6E000E0B6E000E92
:104162000C6E000E0D6E6DEC24F0F1EC24F0E9EC17
:1041720023F0E806D8B4C0EF20F0C2EF20F0B8EF89
:1041820020F01850120037EC25F00001DDA1CCEF31
:1041920020F0CEEF20F0DBEF20F09AEC24F00009C3
:1041A200D8B4D6EF20F0D8EF20F0DBEF20F00F0EDE
:1041B2000001DB6F0001DB51020D010EF324F66EEC
:1041C200100EF420F76EF86A000EF8220900F5CFFF
:1041D20012F00900F5CF13F002D8F9EF20F0050034
:1041E200FA6E1250FD6E1350FE6EFF6AFA50120004
:1041F2000001DB6F1200186E18504AEC1FF0000924
:10420200D8B406EF21F008EF21F0FDEF20F0220EE6
:104212000A6E470E0B6E170E0C6E000E0D6E79ECC9
:1042220024F0160E056E000E066E000E086E010ECC
:10423200076E3BEC24F0000E0A6E000E0B6E000EB1
:104242000C6E000E0D6E6DEC24F0F1EC24F0E9EC36
:1042520023F0E806D8B430EF21F032EF21F028EF56
:1042620021F012000001DD91020EDC6F41EF21F01E
:1042720005EC25F065EF21F001EC25F065EF21F06A
:10428200CAC00EF0CBC00FF002D851EF21F00500EA
:10429200FA6EBE51FD6EBF51FE6EFF6AFA501200F9
:1042A200106E116A1150000AD8B45AEF21F03DEF96
:1042B20021F01050020AD8B439EF21F0010AD8B423
:1042C20039EF21F03DEF21F01200A8C0ACF0A9C0F7
:1042D200ADF0000E0001EF6F000EEE6F84EF21F0E3
:1042E200A6C04CF0A7C04DF0AC0E4E6E000E4F6E45
:1042F200AAC050F0ABC051F020EC0EF04C500001BF
:10430200EE274D50EF23ACC0F6FFADC0F7FFF86AC1
:104312000800F5500009D8A491EF21F093EF21F0A5
:1043220071EF21F0EEC0A6F0EFC0A7F01200BF0EB1
:104332000D6EFF0E0E6E0BC00FF00CC010F00D5084
:104342000F260E50102210500AE11A0E0F5CD8A050
:10435200ADEF21F0B0EF21F0010EB1EF21F0000E30
:10436200116E126A11501210D8B4BAEF21F0BCEFDC
:1043720021F0C3EF21F0200E0B100B6E0C500C6ECF
:10438200C7EF21F00BC00BF00CC00CF0120007C0FD
:104392000BF008C00CF005C00DF006C00EF00B507B
:1043A200096E0C500A6E0B4A0C2A09C0F6FF0AC0AD
:1043B200F7FF000EF86E0DC0D9FF0EC0DAFF0D4AEE
:1043C2000E2A0F0EF76403D00800F55005D0F6CF81
:1043D200E9FFF7CFEAFFEF50DF6EDF50D8A4F4EF2A
:1043E20021F0F6EF21F0D0EF21F01200056E00016E
:1043F200FB51D8B4FFEF21F001EF22F0F8EF21F0EA
:104402009DB806EF22F008EF22F00CEF22F005C073
:10441200ADFF21EF22F09D98080E5A24D96EDA6A78
:10442200010EDA2205C0DFFF5A2A070E5A641CEF7A
:1044320022F01EEF22F020EF22F0000E5A6EFB0750
:104442009D881200010E0B6E200E05180610D8B4BE
:104452002DEF22F02FEF22F048EF22F0F70E076E39
:10446200FF0E086E05C009F006C00AF007500926C3
:1044720008500A220A5009E1050E095CD8A044EF4F
:1044820022F046EF22F048EF22F0000E0B6E0BC036
:1044920005F0066A1200000E221A000E231A000E00
:1044A200241A800E251A1EC005F01FC006F020C077
:1044B20007F021C008F022C009F023C00AF024C08E
:1044C2000BF025C00CF0F6EC10F005C01EF006C093
:1044D2001FF007C020F008C021F01200000E166E77
:1044E200000E156E80EF22F014C007F0086A12C0A9
:1044F20009F013C00AF0FFEC1EF0154A162A1550F7
:104502001024D96E16501120DA6EDF50146E14503A
:10451200D8A48EEF22F090EF22F075EF22F0120075
:10452200146E010E156E0001DDB39AEF22F09CEFBE
:1045320022F0B1EF22F0DD83000E156E1450D8B4D4
:10454200A5EF22F0A7EF22F0ABEF22F0010EDB6F16
:10455200ADEF22F0020EDB6F31EC25F05EEC24F0C1
:1045620015501200080E0001FB61BAEF22F0BCEFF9
:1045720022F0D2EF22F0080E5924D96EDA6A010E27
:10458200DA22DF50AD6E592A070E5964CBEF22F0C2
:10459200CDEF22F0CFEF22F0000E596EFB2BD3EFBE
:1045A20022F09D98120020EE02F00E50D9260F50F4
:1045B200DA22DECF05F0DDCF06F00EC0D9FF0FC044
:1045C200DAFFDECF07F0DDCF08F03BEC24F0000E7F
:1045D2000A6E000E0B6E000E0C6E000E0D6E79EC64
:1045E20024F0020E1200BF0E076EFF0E086E05C009
:1045F20009F006C00AF00750092608500A220A509C
:104602000AE11A0E095CD8A009EF23F00CEF23F09F
:10461200010E0DEF23F0000E056E066A1200055022
:10462200061007100810D8B419EF23F01BEF23F07F
:1046320023EF23F0000E051A000E061A000E071AC9
:10464200800E081A05C005F006C006F007C007F084
:1046520008C008F01200D00E076EFF0E086E05C0EB
:1046620009F006C00AF00750092608500A220A502B
:104672000AE10A0E095CD8A041EF23F044EF23F0CF
:10468200010E45EF23F0000E056E066A120005C00A
:1046920007F006C008F050EF23F0054A062A05C0CD
:1046A200D9FF06C0DAFFDF50D8A45AEF23F05CEF3F
:1046B20023F04EEF23F00750055C056E08500658B4
:1046C200066E1200000E8D6E000E8C6E000E896E4C
:1046D200000E8A6E000E8B6E070E966E92689368BD
:1046E200BF0E946E95687E681F0E7F6E000E7C6E04
:1046F200F18E120001EE00F0600EEE6AE806FDE1B6
:1047020000EEBAF03D0EEE6AE806FDE15A6A596A19
:10471200586A576A566A5B905B920001E8EF19F09B
:104722000EC005F00FC006F0000E086E010E076EF7
:104732003BEC24F0000E0A6E000E0B6E000E0C6EA7
:10474200000E0D6E79EC24F0040E12000EC005F07E
:104752000FC006F0000E086E020E076E3BEC24F04E
:10476200000E0A6E000E0B6E000E0C6E000E0D6E29
:1047720079EC24F0020E12000EC005F00FC006F014
:10478200000E086E010E076E3BEC24F0000E0A6E5E
:10479200000E0B6E000E0C6E000E0D6E79EC24F006
:1047A200020E12000EC005F00FC006F0000E086ED9
:1047B200020E076E3BEC24F0000E0A6E000E0B6E2A
:1047C200000E0C6E000E0D6E79EC24F0040E120039
:1047D200010E056E0001DDB3F1EF23F0F3EF23F0DC
:1047E200FDEF23F0DD95D66937EC25F033EC25F0AB
:1047F20035EC25F0DCC005F005501200000E5824FF
:10480200D96EDA6A010EDA22AECFDFFF582A070E1E
:1048120058640EEF24F010EF24F012EF24F0000E93
:10482200586E562A1200B00E0001B66F000EB76F16
:10483200000EA66F000EA76FAEC0A8F0AFC0A9F021
:10484200B60EAA6F000EAB6F66EC21F01200055097
:104852000702F3CF09F0F4CF0AF005500802F35033
:104862000A2606500702F3500A2609C005F00AC0BC
:1048720006F012000001DDA741EF24F043EF24F01F
:104882004CEF24F005C0D7F006C0D8F007C0D9F02D
:1048920008C0DAF0DD971200C6BA52EF24F054EFE6
:1048A20024F05DEF24F0000EC76E080EC66E000EF7
:1048B200C56E130EC86EC68A120064EF24F0A4EC13
:1048C20024F0C4EC20F00001DDB36AEF24F06CEFB9
:1048D20024F060EF24F012000AC005F00BC006F0CD
:1048E2000CC007F00DC008F0020E12EC20F012000E
:1048F2000AC005F00BC006F00CC007F00DC008F0AE
:10490200000E12EC20F0120021EC25F090EC24F0C5
:1049120063EC23F0D3EC24F04FEC20F01200000EF5
:10492200C76E080EC66E000EC56E130EC86EC69A0E
:104932001200C5BC9FEF24F0A2EF24F0010EA3EFFA
:1049420024F0000E12009EA6A9EF24F0ABEF24F093
:10495200A4EF24F012000001DD81D651D62511EC1E
:1049620025F0030E12000001DD81D880D63511EC4E
:1049720025F0050E12000001DD93000EDC6F0E0E15
:1049820012000001DD9127EC25F0040E1200000157
:10499200DD93000EDC6F0E0E1200066E0650F7EC71
:1049A20021F01200600ED36E000E9B6E120005C045
:1049B200F9F006C0FAF0120005C0F7F006C0F8F0F0
:1049C200120005C06AF106C06BF1120005C06CF15D
:1049D20006C06DF1120005C068F106C069F112004F
:1049E200000E91EC22F0120018EC25F0090E1200D4
:1049F20018EC25F00A0E120015EC25F0050E120037
:104A02002DEC25F0000E12002FEC25F0010E120005
:104A12002FEC25F0020E12002FEC25F0010E1200F1
:104A2200056E05C0C9FF1200C59AC5881200C58A65
:104A3200C5881200AB98AB881200FFEC23F012007D
:104A4200D09E12009E861200C9501200C586120026
:104A5200050E1200010E1200C5841200C58212005A
:104A6200C58012009D961200C69A12009E961200F0
:024A7200120030
:020000040020DA
:08000000FFFFFFFFFFFFFFFF00
:020000040030CA
:0E000000FF081F1EFF0B81FF0FC00FE00F4017
:00000001FF
